:020000040800F2
:100000000018002051150008F9140008FB1400081E
:1000100000000000000000000000000000000000E0
:10002000000000000000000000000000FD140008B7
:100030000000000000000000FF1400080115000887
:10004000D115000800000000D1150008D1150008E6
:10005000D115000809150008D1150008D1150008B0
:1000600000000000D1150008D1150008D1150008C6
:10007000D1150008D1150008D115000800000000B6
:10008000D11500080000000000000000D115000894
:1000900000000000D1150008D1150008D115000896
:1000A00000000000D115000800000000D115000874
:1000B000D11500080000000000000000D115000864
:1000C00010B5064C2378002B07D1054B002B02D02E
:1000D000044800E000BF0123237010BD3800002059
:1000E0000000000034300008044B10B5002B03D092
:1000F0000349044800E000BF10BDC04600000000F6
:100100003C00002034300008002243088B4274D3A6
:1001100003098B425FD3030A8B4244D3030B8B4208
:1001200028D3030C8B420DD3FF22090212BA030C11
:100130008B4202D31212090265D0030B8B4219D3F2
:1001400000E0090AC30B8B4201D3CB03C01A524112
:10015000830B8B4201D38B03C01A5241430B8B425A
:1001600001D34B03C01A5241030B8B4201D30B0343
:10017000C01A5241C30A8B4201D3CB02C01A52416A
:10018000830A8B4201D38B02C01A5241430A8B422D
:1001900001D34B02C01A5241030A8B4201D30B0216
:1001A000C01A5241CDD2C3098B4201D3CB01C01A30
:1001B000524183098B4201D38B01C01A524143093A
:1001C0008B4201D34B01C01A524103098B4201D328
:1001D0000B01C01A5241C3088B4201D3CB00C01A95
:1001E000524183088B4201D38B00C01A524143080D
:1001F0008B4201D34B00C01A5241411A00D2014632
:10020000524110467047FFE701B5002000F006F8A4
:1002100002BDC0460029F7D076E770477047C04658
:10022000D0400B1CD1409C46203AD3401843524248
:100230006346934018437047114A10B51368002B6A
:1002400001D1002010BD013B1360002BF9D10D4AF4
:100250000D49D36990200B408021D3618900C005EE
:1002600001F022FE80219020C900C00501F01CFE93
:10027000064802F026F80028E3D008204042E1E7D3
:100280005400002000100240FFFFDFFF8C00002020
:1002900080230A005B01010010B5044802F0A0F9B8
:1002A0000023984200D0033B180010BD8C000020B2
:1002B00030B580250C4C85B06D010193009202236E
:1002C0000A0002950100200002F016F8002398426F
:1002D00007D0200002F01AFA0423042800D1662374
:1002E0005B42180005B030BD8C00002030B5802581
:1002F0000C4C85B06D010193009202230A00029517
:100300000100200002F0AEF80023984207D0200040
:1003100002F0FCF90423042800D066235B42180095
:1003200005B030BD8C000020F8B500250127104B2A
:10033000856003600F4BC76043600561456185615F
:10034000C5610562040001F065FF29000600200078
:1003500002F0DEF9A84202D1751EAE41F7B20021CB
:10036000200002F0FBF9002800D001273800F8BD7A
:10037000005400400B020000F0B5284B284A294DDC
:1003800089B02B601368591C1160002B44D12800E0
:1003900002F0B8F900283FD18021234C890262691C
:1003A00090200A436261636904220B400193019B20
:1003B0008023122701269B000393FE3BFF3B03A9EA
:1003C000C005069307920497059601F0BDFC8023B3
:1003D0009020DB0004220393032303A9C0050693A6
:1003E00007920497059601F0AFFC8021E26989032A
:1003F0000A43E261E36928000B400293029BFFF786
:1004000093FF011E03D00820404209B0F0BD280030
:1004100002F07EF90028F6D10020F6E700540040F3
:10042000540000208C0000200010024080B500AF76
:10043000314B00225A60304B00221A6001F0C6FA9C
:1004400000F046FF00F0CAFF00F0A8FF002002F015
:1004500027FD0200294B1A60294B180002F0CEF943
:100460000A2001F0D5FA00F057F800F053FE00F032
:10047000B1FE01F0C7FA0200224B1A6001F0C2FA85
:100480000200204B1B68D31A1F4A934208D91C4B09
:10049000180002F0B3F901F0B5FA0200194B1A6026
:1004A0001A4B1B78012BE9D1154B180002F0A6F965
:1004B00001F0A8FA0200134B1A60154B1B78122B9F
:1004C00016D89A00134BD3181B689F4600F0E0F92A
:1004D0000EE000F031FA0BE000F08EFA08E000F0D8
:1004E00003FB05E000F078FB02E000F0E9FBC0460A
:1004F000064B00221A70C1E7E40000200000002033
:10050000EC00002058000020701700005C00002064
:10051000080100206C32000880B500AF164B902215
:100520001A70164B19685A68002002F025FD020067
:10053000134B1A600A2001F06BFA0F4901230022C5
:10054000002002F005FD02000D4B1A600A2001F0A8
:100550005FFA0121002002F017FD0200084B1A602B
:100560000A2001F055FA002002F026FD642001F077
:100570004FFAC046BD4680BD08010020E4000020BF
:1005800000000020F0B585B000AF786039600F231F
:10059000FB1801221A7001F0DFFA031E12D10D4B75
:1005A0003422DA603B681D0000231E000F23FC1874
:1005B00079682A003300022001F016FB0300237043
:1005C00001F0DEFA0F23FB181B781800BD4605B0BA
:1005D000F0BDC04600200240B0B586B000AFF86064
:1005E0003A607B601723FB1801221A7001F0B4FAFD
:1005F000031E10D10B4B3422DA601723FD183B6821
:100600007C68F9681A002300032001F0EDFA03006A
:100610002B7001F0B5FA1723FB181B781800BD46A4
:1006200006B0B0BD0020024090B589B000AF786040
:100630000023FB601F23FB1801221A7001F08CFAC3
:10064000031E19D110217B1801229A607B187A6849
:100650005A607B1800221A600B4B3422DA601F2389
:10066000FC180C23FA187B181100180001F022FB6B
:100670000300237001F084FA1F23FB181B78180075
:10068000BD4609B090BDC0460020024080B582B092
:1006900000AF78607B681B681800BD4602B080BD63
:1006A00090B583B000AF78607B685C681B68180009
:1006B0002100BD4603B090BD80B584B000AF786026
:1006C00039600F23FB18FF221A700E23FB18FF223C
:1006D0001A7019E07B685A1C7A601A780E203B1851
:1006E0001B785340DBB2BB60124ABB68D318197841
:1006F0003B180F203A1812784A401A703B180E49DE
:10070000BA688A1812781A703B685A1E3A60002B31
:10071000E0D10F23FB181B781B021AB20E23FB1823
:100720001B781BB213431BB29BB21800BD4604B02A
:1007300080BDC0466C3000086C31000880B584B0C4
:1007400000AF78600A00FB1C1A70FB1C1B78033397
:100750007A68D3181B781900FB1C1B7802337A685F
:10076000D3181B781B020A001A43FB1C1B780133A9
:100770007968CB181B781B041A43FB1C1B7879681B
:10078000CB181B781B061343FB60FB681800BD46A3
:1007900004B080BDF0B587B000AF78600A00FB1CE4
:1007A0001A70002300243B617C6100230024BB609D
:1007B000FC60FB1C1B7807337A68D3181B78190080
:1007C000FB1C1B7806337A68D3181B781B020A00BF
:1007D0001A43FB1C1B7805337968CB181B781B0464
:1007E0001A43FB1C1B7804337968CB181B781B0653
:1007F00013433B61DB177B613B69002293433B6101
:100800007B69002213407B61FB1C1B7803337A68F1
:10081000D3181B781900FB1C1B7802337A68D31895
:100820001B781B020A001A43FB1C1B7801337968F2
:10083000CB181B781B041A43FB1C1B787968CB1858
:100840001B781B061343BB60DB17FB60BB681B0CEC
:10085000FA6812041343FB60BB681B04BB60BB68EF
:100860001B0CFA6812041343FB60BB681B04BB60DB
:100870003A69BB681A4315007A69FB681A43160087
:100880002B00340018002100BD4607B0F0BD000069
:1008900090B583B000AFBB1D00221A80234B5B7C58
:1008A0001B021AB2214B9B7C1BB213431AB2BB1D15
:1008B0001A801E4B11211800FFF7FEFE03001A00DC
:1008C000BB1D1B88934229D1194B5C681B685A1CBD
:1008D00020D1631C1ED1154B01211800FFF75AFFD0
:1008E00003000C00124A13605460104B09211800D9
:1008F000FFF750FF03000C000E4A13605460802085
:1009000000F036FAFA239B00180001F081F800F09D
:100910009DFC06E0012000F02BFA02E0052000F02B
:1009200027FAC046BD4603B090BDC046080100206E
:10093000280500200001002090B583B000AFBB1D4A
:1009400000221A803B1D00221A80284B1B7D1B02AF
:100950001AB2264B5B7D1BB213431AB2BB1D1A8021
:100960003C1D224B14211800FFF7A6FE0300238034
:100970003A1DBB1D12881B889A422FD11B4B0121A7
:100980001800FFF707FF0A000100194B5C681B689D
:1009900099421FD1A2421DD1144B09211800FFF723
:1009A000F9FE0A000100134B5C681B6899420DD1E7
:1009B000A2420BD1802000F0DBF9FA239B00180043
:1009C00001F026F8112000F09BFA0AE0042000F064
:1009D000CFF906E0032000F0CBF902E0052000F09B
:1009E000C7F9C046BD4603B090BDC046080100200F
:1009F000280500200001002090B583B000AFBB1C8B
:100A000000221A80344B5B7C1B021AB2324B9B7C57
:100A10001BB213431AB2BB1C1A802F4B11211800B2
:100A2000FFF74AFE03001A00BB1C1B8893424BD100
:100A3000294B01211800FFF7ADFE0A000100274BEA
:100A40005C681B6899423BD1A24239D1224B0921F3
:100A50001800FFF79FFE0A000100214B5C681B682D
:100A6000994229D1A24227D11C4A01235B42DC17BB
:100A7000136054601A4A01235B42DC171360546010
:100A800000237B6008E0174B7A68920001214942FD
:100A9000D1507B6801337B607B68FF2BF3DD8020C6
:100AA00000F066F9FA239B00180000F0B1FF00F097
:100AB000BBFA00F0CBFB0AE0042000F059F906E095
:100AC000032000F055F902E0052000F051F9C0467E
:100AD000BD4603B090BDC046080100202805002097
:100AE000000100202801002090B583B000AFBB1D9D
:100AF00000221A803B1D00221A80334B9B7D1B0273
:100B00001AB2314BDB7D1BB213431AB2BB1D1A80E4
:100B10003C1D2D4B16211800FFF7CEFD030023804E
:100B20003A1DBB1D12881B889A4246D1264B0121D3
:100B30001800FFF72FFE0A000100244B5C681B68B9
:100B4000994236D1A24234D11F4B09211800FFF738
:100B500021FE0A0001001E4B5C681B68994224D1EB
:100B6000A24222D1184B5B7C1A001A4B9200D35838
:100B7000013316D1144B5B7C1C00134B122118005F
:100B8000FFF7DCFD0100134BA200D150802000F0E4
:100B9000EFF8FA239B00180000F03AFF00F056FB34
:100BA0000EE0022000F0E4F80AE0042000F0E0F893
:100BB00006E0032000F0DCF802E0052000F0D8F8A1
:100BC000C046BD4603B090BD0801002028050020A6
:100BD000000100202801002090B583B000AFBB1DAC
:100BE00000221A803B1D00221A80314B9B7C1B0285
:100BF0001AB22F4BDB7C1BB213431AB2BB1D1A80F7
:100C00003C1D2B4B12211800FFF756FD03002380DB
:100C10003A1DBB1D12881B889A4242D1244B0121E8
:100C20001800FFF7B7FD0A000100224B5C681B6843
:100C3000994232D1A24230D11D4B09211800FFF751
:100C4000A9FD0A0001001C4B5C681B68994220D179
:100C5000A2421ED1164B5B7C1A00184B9200D3584F
:100C6000013312D0124B5B7C1A00144B920001210D
:100C70004942D150802000F07BF8FA239B001800F5
:100C800000F0C6FE00F0E2FA0EE0062000F070F878
:100C90000AE0042000F06CF806E0032000F068F899
:100CA00002E0052000F064F8C046BD4603B090BDE8
:100CB0000801002028050020000100202801002054
:100CC00090B583B000AFBB1D00221A803B1D0022EF
:100CD0001A80254B5B7A1B021AB2234B9B7A1BB2FC
:100CE00013431AB2BB1D1A803C1D1F4B092118006B
:100CF000FFF7E2FC030023803A1DBB1D12881B880E
:100D00009A422AD1184B5B791A00184B9200D4589A
:100D1000154B01211800FFF711FD03009C4218D16B
:100D20009023DB0501220121180001F02DF980201C
:100D300000F01EF8FA235B00180000F069FE902313
:100D4000DB0500220121180001F01EF900F058F81F
:100D500006E0042000F00CF802E0052000F008F89E
:100D6000C046BD4603B090BD080100202801002008
:100D7000F0B589B000AF0200FB1D1A701A23FB18F2
:100D800000221A8008217B18F0221A707B18FA1DA5
:100D900012785A700023FB610BE0FB69023317499C
:100DA000FA698A1811780822BA18D154FB690133FC
:100DB000FB61FB690B2BF0DD1A210E007C18082566
:100DC0007B190E211800FFF777FC03002380310008
:100DD0007B181B881B0A9BB2DAB27B199A737B18AB
:100DE0001B88DAB27B19DA737B19102219000020F4
:100DF00002F0DAF8C046BD4609B0F0BDD8000020C8
:100E000090B585B000AF0F243B1900221A70394B02
:100E100019685A68002002F0AFF80200364B1A60D9
:100E2000052000F0F5FD0021002002F0ADF80200E1
:100E3000314B1A600A2000F0EBFDC8235A00391D1F
:100E40000123002002F064F83B193A1D12781A7051
:100E50003B191B783E2B04D90F23FB1800221A7074
:100E600005E00F22BB18BA18127801321A7000235D
:100E7000BB600BE0BB680533204AD15C3A1DBB6800
:100E8000D3180A1C1A70BB680133BB60BB68032B04
:100E9000F0DD0F243B191B789A00391D0423002034
:100EA00002F046F83B1D3A1912781A70C8235A000E
:100EB000391D0123002002F03BF80E4B19685A68D7
:100EC000002002F059F802000B4B1A600A2000F0D3
:100ED0009FFD0121002002F057F80200064B1A6026
:100EE000052000F095FD002002F066F8C046BD46E2
:100EF00005B090BDE40000200000002008010020A3
:100F0000B0B586B000AF0200FB1D1A7017243B1964
:100F100000221A70414B19685A68002002F02CF820
:100F200002003F4B1A60052000F072FD00210020F6
:100F300002F02AF802003A4B1A600A2000F068FD1D
:100F40009223FF331A000C2579190123002001F0A8
:100F5000DFFF3B197A1912781A703B191B78032BA3
:100F600004D91723FB1800221A7005E01722BB18BA
:100F7000BA18127801321A7000233B610DE0FB1D94
:100F80001A783B69D2183B6901332649895C0C22E7
:100F9000BA18D1543B6901333B613B69022BEEDD4A
:100FA000204B1A780C217B181A7017257B191B7897
:100FB00040339A000C0079180423002001F0B8FF98
:100FC0000200174B1A6021007B187A1912781A70E8
:100FD0009223FF331A0079180123002001F0A8FFA3
:100FE0000E4B19685A68002001F0C6FF02000C4B36
:100FF0001A600A2000F00CFD0121002001F0C4FF5E
:101000000200074B1A60052000F002FD002001F0ED
:10101000D3FFC046BD4606B0B0BDC046E4000020C8
:10102000000000200801002080B5A4B000AF00231C
:101030008C22BA1813600BE03A008C217B181B68D5
:10104000D31800221A707B181B6801337A181360BA
:101050008C23FB181B688B2BEEDD2C4B19685A6810
:10106000002001F089FF0200294B1A60052000F0E2
:10107000CFFC0021002001F087FF0200244B1A6002
:101080000A2000F0C5FC39008C230022002001F06A
:101090004FFF02001E4B1A600A2000F0B9FC390015
:1010A0008C238C22002001F043FF0200184B1A60B1
:1010B0000A2000F0ADFCC8235A00390004230020A8
:1010C00001F036FF0200124B1A600A2000F0A0FC6B
:1010D0000E4B19685A68002001F04EFF02000C4BBD
:1010E0001A60052000F094FC0121002001F04CFF63
:1010F0000200074B1A60052000F08AFC002001F076
:101100005BFFC046BD4624B080BDC046E400002061
:101110000000002080B582B000AF00F08BFC03001F
:101120007B607B68DAB22A4B1A707B681B0A7B6093
:101130007B68DAB2264B5A707B681B0A7B607B683F
:10114000DAB2234B9A707B681B0A7B607B68DAB249
:101150001F4BDA7000F074FC03007B607B68DAB22E
:101160001B4B1A717B681B0A7B607B68DAB2184BD9
:101170005A717B681B0A7B607B68DAB2144B9A71E8
:101180007B681B0A7B607B68DAB2114BDA7100F076
:101190005DFC03007B607B68DAB20D4B1A727B68E2
:1011A0001B0A7B607B68DAB2094B5A727B681B0AA8
:1011B0007B607B68DAB2064B9A727B681B0A7B60A5
:1011C0007B68DAB2024BDA72C046BD4602B080BD1F
:1011D000D800002090B583B000AF164B1800FFF781
:1011E0005FFA03000C00144A13605460134B18009C
:1011F000FFF756FA03000C00114A136054600023F5
:101200007B600FE07B680F4A944663449B001800A4
:10121000FFF73CFA01000C4B7A689200D1507B68D2
:1012200001337B607B68FF2BECDDC046BD4603B01D
:1012300090BDC04600700008280500200870000816
:1012400000010020081C00022801002090B583B096
:1012500000AF194B1800FFF7E7F9031E27D1174B12
:101260005C681B6814491A0023000800FFF7B4F9F2
:10127000134B5C681B6813491A0023000800FFF732
:10128000ABF900237B600FE07B680F4A9446634410
:101290009B0018000D4B7A689200D3581900FFF795
:1012A00071F97B6801337B607B68FF2BECDDC04606
:1012B0001800BD4603B090BD00700008280500204E
:1012C0000001002008700008081C0002280100200E
:1012D00090B597B000AF28243B19180030231A00AE
:1012E000002101F09EFE1823FB18180010231A009D
:1012F000002101F096FE3B1D180014231A00002166
:1013000001F08FFE21007B180A221A607B1801224F
:10131000DA607B1810221A617B180122DA617B18CF
:1013200002221A627B18802212025A627B188022E3
:1013300052039A627B180022DA627B18180001F0CF
:1013400065FA031E01D000F0B9F818217B180722B6
:101350001A607B1802225A607B1800229A607B1860
:101360000022DA607B180121180001F089FC031EBD
:1013700001D000F0A3F83B1D20221A603B1D002283
:10138000DA603B1D180001F0FFFC031E01D000F0E5
:1013900095F8C046BD4617B090BD000080B500AFBF
:1013A0000B4B0C4A1A600A4B04225A60084B0A4A3B
:1013B000DA60074B084A9A60054B180001F0F2F911
:1013C000031E01D000F07AF8C046BD4680BDC0467D
:1013D000EC00002000300040FF0F000090B589B005
:1013E00000AF0C243B19180014231A00002101F04F
:1013F00018FE2F4B5A692E4B8021C9030A435A61AC
:101400002B4B5A698023DB031340BB60BB68284B1E
:101410005A69274B802189020A435A61244B5A6931
:1014200080239B0213407B607B68214B5A69204BD1
:101430008021C9020A435A611D4B5A698023DB028D
:1014400013403B603B689023DB05002241211800DC
:1014500000F09AFD3B1941221A603B1901225A60A3
:101460003B1900229A603B190022DA603A19902356
:10147000DB051100180000F067FC3B1902221A601E
:101480003B190C4A5A603B1900229A603B190A4AE0
:101490001900100000F058FC00220021052000F087
:1014A000DBFA052000F002FBC046BD4609B090BD46
:1014B00000100240000011100004004880B500AF89
:1014C000C046BD4680BD000001200A4B82B099692C
:1014D0000143996180219A69490502400092009A6E
:1014E000DA690A43DA61DB690B400193019B02B0C0
:1014F0007047C046001002407047FEE770477047D3
:1015000010B500F073FA10BD70B50C4800F0F4FA95
:101510000B4C2078002810D10A4D1E230200290010
:1015200001F03AFD084B18602B78F02B05D0002B0A
:1015300003D0002801D10123237070BD2C000020AE
:101540005C0000200801002000000020704700001F
:101550001348854613480168090E134A914205D184
:101560001248134901601348134901601348144994
:10157000144A002302E0D458C4500433C4188C42E7
:10158000F9D3114A114C002301E013600432A24246
:10159000FBD3FFF7DBFF01F017FDFEF747FFFEE788
:1015A00000180020040000001F0000001810024076
:1015B00001000000000001400000000000000020C9
:1015C00034000020D43200083800002060050020DC
:1015D000FEE710B58368A620984710BD70B50D00D2
:1015E00004691100A6202A00A04770BDF0B50700CD
:1015F0001E0085B0019102928023341C5B009E4244
:1016000001D9194B1C88A4B2FD682300019A0299E4
:10161000A620A847051E11D17B6998470390012198
:10162000BB68A62098477B6905009847039BC01AB2
:101630004023FF33984211D8002DF0D1019B361B77
:101640001B190193029BB6B21B199BB20293002E89
:1016500001D0002DD0D0280005B0F0BD002DEDD078
:1016600003256D42EAE7C046C832000810B51830BD
:1016700000F02BF910BD436A37B50400002B0CD1E4
:101680006B46DD1D2900FFF7F1FF02222B78934303
:10169000242B02D0012040423EBD01230020636282
:1016A000FAE737B56B46DC1D0D001830210000F05D
:1016B00055F9002801D123782B803EBD07B56B4634
:1016C000D98006331830190000F052F90EBD10B55C
:1016D0000469880402D5A620A04710BDAE20FBE710
:1016E00070B50500C468880404D5A620A04704008E
:1016F000200070BDAE20A047041EF9D16B69984749
:1017000006000121AB68AE2098476B69040098473A
:101710004023FF33801B984202D8002CF1D1E7E729
:10172000002CE5D003246442E2E7000010B5002855
:1017300002D10120404210BD4A680B684260CA686D
:101740000360C2600A6902618A6882604A69006255
:101750004261054AC261054A8261002BE9D098477F
:10176000431E9841E6E7C046CF160008E116000880
:10177000F0B5070015001E0085B0019180220023FE
:101780005200964200D83300DAB20292FF221A4089
:1017900000921300FC68019A2900AE20A047041EA5
:1017A00011D17B69984703900121BB68A620984717
:1017B0007B6904009847039BC01A4023FF3398427B
:1017C00012D8002CF0D1029A019B944663440193F5
:1017D000009BF61AED18B6B2ADB2002E01D0002C67
:1017E000CCD0200005B0F0BD002CECD00324644226
:1017F000E9E7F0B589B003AC0F0016000021112213
:101800000500200001F00DFC09233900237232008D
:101810002300182016000F00C640C740F6B2083853
:101820001E715E730600FFB21F705F7201330836CF
:10183000F0D190221123120121002800FFF798FF18
:1018400009B0F0BD07B56B46D971073318301900E0
:1018500000F045F80EBD000070B50D008021490074
:101860008A4207D805490469521891B2A6202A0075
:10187000A04770BD01204042FBE7C04608200000A1
:101880001300802210B55200934205D8C4680A00A4
:10189000A6200349A04710BD01204042FBE7C046F7
:1018A0000820000007B56B46D91D012318300B70C6
:1018B00000F034F80EBD10B544688068A04710BD34
:1018C00010B504688068A04710BD10B50A00012358
:1018D0001721FFF7F0FF431E9841404210BD73B53A
:1018E0006B46DC1D0E00012322000D210500FFF7D1
:1018F000E2FF00280FD101232178327899431A4062
:101900000A4322700D2122002800FFF7D9FF431E51
:101910009841404276BD0120FBE7000073B56B465D
:10192000DC1D0E00012322000B490500FFF7C3FF59
:1019300000280FD101232178327899431A400A43B5
:101940002270054922002800FFF7BAFF431E984184
:10195000404276BD0120FBE70620000010B50A00DA
:1019600001230021FFF7A7FF431E9841404210BD0D
:1019700010B50A0001230021FFF7A2FF431E984182
:10198000404210BD70B50500FA200D4B800019785B
:10199000FEF7BAFB0B4B01001868FEF7B5FB00F031
:1019A00091F804000120002C09D1032D07D802383A
:1019B0002200290000F050F82000034B1D6070BD8C
:1019C0002400002004000020280000201023064AE4
:1019D00010B5116800200B431360FFF7D3FFFFF72A
:1019E00073FD002010BDC04600200240034A044B96
:1019F00011681B785B1813607047C04638050020DB
:101A000024000020014B18687047C04638050020AC
:101A100070B50400FFF7F6FF0500631C02D0044B0D
:101A20001B78E418FFF7EEFF401BA042FAD370BD0D
:101A300024000020014B18687047C046ACF7FF1F18
:101A4000014B18687047C046B0F7FF1F014B18687C
:101A50007047C046B4F7FF1F30B5FF2503242A00A6
:101A6000C3B21C40E400A24089012940D243A140F6
:101A700000280ADBC0240B4B80088000C018A4009B
:101A800003591A401143015130BD0F200340083B58
:101A900005489B089B001B18D86902401143D96177
:101AA000F2E7C04600E100E000ED00E0002805DBC1
:101AB0001F2318401E3B8340014A13607047C046F5
:101AC00000E100E0094A431E012093420DD8C021E5
:101AD000074A08485360036A09061B021B0A0B43A6
:101AE000036200200723906013607047FFFFFF0030
:101AF00010E000E000ED00E01F22036810B51A407E
:101B000001239340044A51690B4204D05361436856
:101B1000002B00D0984710BD0004014010210C4B51
:101B200030B5D8680022084205D00A480232C4699C
:101B30002243C2610A000420D968014205D0012174
:101B4000044C0243E5692943E161DA6030BDC046D7
:101B50000020024040050020064B00201A691206B2
:101B600006D5054A5A60054A5A6018690006C00F32
:101B70007047C0460020024023016745AB89EFCD86
:101B80008023034A002011690B4313617047C0464C
:101B90000020024070B50400FFF734FF0125060065
:101BA000104B1A00D96829420FD12021D868084269
:101BB00000D0D9601023D068184002D1D3685B07E9
:101BC00008D5FFF7ABFF012004E0611CEAD0002C30
:101BD00001D1032070BDFFF715FF801BA042DFD9A4
:101BE000F7E7C04600200240F0B585B002920393AB
:101BF0001B4B01911A7E04000220012A2ED00122E3
:101C000018481A76FFF7C6FF002824D12600012CB9
:101C100002D0022C00D0042600240298039922014D
:101C2000FEF7FEFA002201270D4B0F4DDA612B69FA
:101C3000019A3B432B6163009B1880B218800948CE
:101C4000FFF7A8FF2B69BB432B61002803D1E419E0
:101C5000E3B29E42E1D80022014B1A7605B0F0BDF6
:101C60004005002050C30000002002400022064B27
:101C7000DA61064B043219690A431A614022196974
:101C80000A431A617047C046400500200020024008
:101C90000022064BDA61064B023219690A431A61C7
:101CA0004022586119690A431A61704740050020B3
:101CB00000200240F8B5214E0500337E0F000220BF
:101CC000012B0CD0012333762B681D48012B12D138
:101CD000FFF760FF002803D0012000233376F8BD12
:101CE000FFF7C4FF1648FFF755FF0421154A136993
:101CF0008B431361F1E7FFF74DFF0028ECD101237F
:101D00005B423B606C680130AB686A689B029B1861
:101D1000A342E2D92000FFF7BBFF0948FFF73AFFD3
:101D20000221084A13698B431361002801D03C60EB
:101D3000D3E78023DB00E418E6E7C0464005002037
:101D400050C3000000200240F0B50B6887B0039339
:101D500000230191039ADA4001D107B0F0BD0122BE
:101D60009A4002920299039A0A40009200D18CE0B4
:101D7000019A1021526816008E43022E0ED10725BB
:101D80001D40AD000139A940DC08A4000419276AF0
:101D90008F4301990969A9400F43276203245F001B
:101DA000BC40E4430568013E2540AC460325154090
:101DB000BD4061460D430560012E0FD8019986682C
:101DC000CD682640BD4035438560466802991509B7
:101DD0008E4301210D409D4035434560C568019902
:101DE0002C408D688021BD4049052C43C4600A42C7
:101DF0004BD00121264C0326A5691E400D43A56149
:101E0000A4699D080C400594059C0F242149AD0050
:101E1000B6006D18B4409021AF68C905A7430024EF
:101E200088420CD01C490134884208D01B49013437
:101E3000884204D01A490334884200D1023CB4409D
:101E400000993C430E00AC60164CCD4327683E43DE
:101E5000D10301D43E002E4026606768009E3E43B9
:101E6000910301D43E002E406660A768009E3E4369
:101E7000D10201D43E002E40A660E668009F3743A1
:101E8000920201D42E403700E760013362E7C0467A
:101E90000010024000000140000400480008004813
:101EA000000C004800040140F0B50023032785B072
:101EB0000291029ADA4001D105B0F0BD01229A40A8
:101EC00002990092114053D02A4C9A081D009200AA
:101ED00012190F243D40AD00AC4096680194264095
:101EE000039690260024F605B0420FD0224CA4465B
:101EF000012460450AD0214CA4460224604505D047
:101F00001F4CA4463C00604500D00524AC40039D16
:101F1000AC4211D1C9431B4C25680D402560656852
:101F20000D406560A5680D40A560E5682940E16049
:101F30009168019CA14391603C0059008C40E143B1
:101F400007240F261C40A400A6400268009C0A40FB
:101F50000260DA0892008218156AB5431562826839
:101F60000A4082604268A2434260C2681140C16078
:101F700001339EE7000001400004004800080048CB
:101F8000000C004800040140002A01D08161704724
:101F90008162FCE703689A69920701D500229A6280
:101FA00001229969114202D199690A439A617047E5
:101FB00030B5039C1204006822431343054A456868
:101FC0008905640D890D1443A5430B432B434360DE
:101FD00030BDC046FF63FF03F8B50368040098698D
:101FE00010230E00170018402025002818D1F8BD36
:101FF000721C16D0FFF706FDC01BB04201D8002EA0
:102000000ED12022636C13436364230041331A70A2
:102010002200002342324034137001202370E6E78F
:1020200023689A692A42E3D010222000DA61DD6138
:10203000FFF7B0FF2268064953680B405360042342
:10204000626C13436364230041331D70E0E7C046B4
:1020500000E800FEF8B504000D00160020272368F4
:102060009B693B4201D00020F8BD320029002000CE
:10207000FFF7B2FF002813D1FFF7C4FC801BA84272
:1020800001D8002DEBD12022636C1343636423003D
:1020900041331A70220000234232403413702370FF
:1020A0000120E1E7F8B504000E0017001D002268CA
:1020B000936933409B1B59424B41BB4201D00020E6
:1020C00017E06B1CF4D0FFF79DFC069BC01AA842DA
:1020D00001D8002DEBD12022636C012013436364EF
:1020E000230041331A70220000234232403413701F
:1020F0002370F8BDF8B504000D0016000227236810
:102100009B693B4201D00020F8BD3200290020002D
:10211000FFF762FF002815D16B1CF0D0FFF772FCAF
:10212000801BA84201D8002DE9D12022636C134303
:102130006364230041331A7022000023423240348A
:10214000137023700120DFE773B514001E00DAB2AC
:10215000154B0500009380235B04FFF729FF079AC6
:1021600006992800FFF7C6FF002801D0012076BDA0
:102170002B68012E0DD1E4B29C62079B00220093D4
:102180008021069B2800FFF78DFF431E9841C0B2B7
:10219000EDE7220A9A620699079A2800FFF7AAFF3C
:1021A0000028E3D12B68E6E70020008073B5050026
:1021B00014001E00DAB2154B00930023FFF7F8FE5F
:1021C000079A06992800FFF795FF002801D0012003
:1021D00076BD2B68012E0DD1E4B29C62079B0022D4
:1021E00000934021069B2800FFF75CFF431E9841A7
:1021F000C0B2EDE7220A9A620699079A2800FFF713
:1022000079FF0028E3D12B68E6E7C0460020008074
:102210007047000070B504000120002C3FD025005D
:1022200041352B78DBB2002B05D1220040321370F0
:102230002000FFF7EDFF242301212B702368E068C5
:102240001A68A6688A431A6061681A4A0A401A61C5
:102250009968194A11409960012821D18021090209
:10226000314399605868154901435960D968002085
:102270000A40DA60616922690A43A16909020A43D6
:10228000DA60216AE2690A431A60012219680A4386
:102290001A60202360642B7020634234207070BD6C
:1022A00084210902314399600228DBD18021090190
:1022B0005960D7E7FFFFFFF0FF7FFFFF00800002BC
:1022C000704770B504000120002C13D02500242392
:1022D000226841352B701368834313602000FFF799
:1022E000EFFF0020230060644233287020634034F5
:1022F0001870207070BD0000F0B5070089B007931A
:102300000EAB069204CB41371B88049205933B78B1
:1023100004000D000220202B08D1002A02D0059BCA
:10232000002B05D180239B006364012009B0F0BD20
:102330002300403303931B78012BF7D00122039B2A
:102340001A70FFF75FFB8021029000901923012291
:1023500009022000FFF7A6FE061EE6D121233B70EE
:1023600027001F3342373B70049B60646362059B08
:1023700060636385029B069A0193109B290000937A
:102380002000079BFFF7E0FE002802D0039B1E7091
:10239000CBE7638DFF2B53D9FF22802322855B047B
:1023A0000090290020008026FFF702FEB604029A62
:1023B00010992000FFF79EFE0028B6D1636A2268BC
:1023C0001978013391626362638D228D013B9BB268
:1023D0006385013A638D92B22285002B17D0002AC3
:1023E00015D1029B802100932000109BFFF75AFE1D
:1023F00000289AD1638DFF2B2AD9FF2323858023C0
:10240000FF2200905B0429002000FFF7D1FD638DBF
:10241000002BCCD1029A10992000FFF71BFE002858
:1024200000D082E7202123680D4DD9615A682A40E7
:102430005A6023004034413319703870207075E7BA
:102440008023628D9B0492B22285D2B20090A8E7CD
:10245000628D330092B22285D2B20090D3E7C0469B
:1024600000E800FEF0B5070089B007930EAB0692B6
:1024700004CB41371B88049205933B7804000D0080
:102480000220202B08D1002A02D0059B002B05D169
:1024900080239B006364012009B0F0BD230040331A
:1024A00003931B78012BF7D00122039B1A70FFF7CF
:1024B000A9FA80210290009019230122090220002C
:1024C000FFF7F0FD061EE6D122233B7027001E33E6
:1024D00042373B70049B60646362059B6063638565
:1024E000029B069A0193109B290000932000079BF2
:1024F000FFF75CFE002802D0039B1E70CBE7628DC5
:10250000354BFF2A58D9FF222285009380235B0494
:10251000290020008026FFF74BFDB604029B002215
:1025200000930421109B2000FFF7BCFD0028B2D1CE
:102530002368626A5B6A1370636A228D0133636287
:10254000638D013A013B9BB26385638D92B2228514
:10255000002B18D0002A16D1029B80210093200066
:10256000109BFFF79FFD002800D094E7638DFF2BA1
:102570002AD9FF2323858023FF2200905B042900B2
:102580002000FFF715FD638D002BC7D1029A10992B
:102590002000FFF75FFD002800D07CE720212368A2
:1025A0000E4DD9615A682A405A60230040344133A5
:1025B0001970387020706FE7628D92B22285009397
:1025C0008023D2B29B04A3E7628D330092B22285AE
:1025D000D2B20090D3E7C0460024008000E800FE9D
:1025E000F0B51D00002389B0079303004133059225
:1025F00002931B7804000220202B57D123689A698C
:1026000080231B02134051D1260040363278012A24
:102610004CD001223270029E2230890530706364F2
:102620008B0D04930392E368012B21D1344B049A60
:10263000134322685360FFF7E5F906002268039907
:10264000936992695B0912090B400A40134312D047
:10265000102723689A6900963A402B00002A27D158
:1026600020212000FFF71EFD002817D001201DE0CB
:10267000A0239B01DBE76B1CE0D0FFF7C3F9801BB5
:10268000A84201D8002DD9D12023029A40341370DA
:1026900062681343636000232370E7E72023226806
:1026A000D3612200403441321370207009B0F0BD74
:1026B000002220212000FFF7F5FC021ED6D123685E
:1026C0000598DF612027DF61079981420ED18021C3
:1026D0005868C90101435960200000962B00390059
:1026E000FFF7E0FC0028C1D12368DF61079B059A52
:1026F00001330793079B934200D294E7C4E7C04697
:102700000020000241300078C0B27047406C704732
:10271000F0B50400413422780300D2B20220202A0E
:1027200018D11D0040352E78012E13D01B682230A1
:1027300020701E68233886431E601E68064F3E4088
:102740001E601E6831431960196808431860002034
:1027500022702870F0BDC046FFEFFFFFF0B5050006
:1027600041352A780300D2B20220202A17D11C005A
:1027700040342678012E12D01B68223028701E6843
:10278000233886431E601E68054F09023E403143D0
:10279000196019680843186000202A702070F0BD85
:1027A000FFF0FFFF70B504000120002C14D0236857
:1027B0000F4A1A600F4A1A6062685A60A2689A60EB
:1027C000FFF720F905002368D868002805D11969AA
:1027D000E268914208D01A6170BDFFF713F9401BFF
:1027E0003028F0D90320F7E7034A1A60F4E7C0461F
:1027F000CCCC000055550000AAAA00000368024A8C
:1028000000201A607047C046AAAA0000F0B5040074
:1028100085B0002802D1012005B0F0BD0368DB07B8
:102820002FD423689B0700D583E023681B0700D5BE
:10283000C4E023685B0700D5E7E02368DB061AD510
:102840006269BA4D0423012A00D053E1696B022664
:102850000B436B636B6B1A436A63FFF7D3F8070094
:102860006B6B334200D13EE1F8216A6BA3698A4366
:10287000DB0013436B63236A002B00D062E100206E
:10288000CAE70C21A94D6A680A40042A0BD06B687C
:102890000B40082B0ED1C0226B68520213408022DD
:1028A0005202934206D12B689B03BAD56368002B72
:1028B000B7D1B0E76368012B13D180232A685B028C
:1028C00013432B60FFF79EF880260700B6022B68A3
:1028D0003342A6D1FFF796F8C01B6428F7D903202E
:1028E0009AE7002B15D12B68914A802613402B6064
:1028F0002B68904AB60213402B60FFF783F807005D
:102900002B6833428DD0FFF77DF8C01B6428F7D9C0
:10291000E5E7052B05D180232A68DB0213432B60F2
:10292000CBE72B68824A13402B602B68814A134007
:10293000C7E70C227D4D6B6813420BD06B681340C8
:10294000082B16D1C0226B6852021340802212025B
:1029500093420ED12B689B0703D5E368012B00D06F
:1029600059E7F8212A6823698A43DB0013432B6067
:102970005BE7E2680123002A0FD02A68022613438E
:102980002B60FFF73FF807002B683342E9D1FFF7D0
:1029900039F8C01B0228F7D9A1E72A6802269A4312
:1029A0002A60FFF72FF807002B68334200D13CE77D
:1029B000FFF728F8C01B0228F6D990E7E269012347
:1029C0005A4D002A10D06A6A022613436B62FFF741
:1029D00019F807006B6A334200D02AE7FFF712F8B4
:1029E000C01B0228F6D97AE76A6A02269A436A620D
:1029F000FFF708F807006B6A334200D119E7FFF7C9
:102A000001F8C01B0228F6D969E780220021474D52
:102A10005205EB690091134208D1EB691343EB6156
:102A2000EB6913400393039B012300938027424EDD
:102A30007F0033683B4206D0A368012B13D12A6A7A
:102A400013432B6230E033683B433360FEF7DAFF19
:102A5000019033683B42EFD1FEF7D4FF019BC01ACF
:102A60006428F6D93BE70122002B14D12B6A0227F8
:102A700093432B622B6A033293432B62FEF7C2FF10
:102A800006002B6A3B4225D0FEF7BCFF2B4B801B78
:102A90009842F6D923E7052B0BD1296A013B0B435A
:102AA0002B622B6A1A432A62FEF7ACFF022706004C
:102AB0000DE02B6A934304222B622B6A9343C0E7F9
:102AC000FEF7A0FF1D4B801B984200D907E72B6A39
:102AD0003B42F5D0009B012B00D0AEE6EB69184AD3
:102AE0001340EB61A9E6FEF78DFFC01B022800D85A
:102AF000B6E6F4E6053203D16A6B9A436A63B3E63D
:102B00006A6B0226134301226B636B6B93436B6307
:102B1000FEF778FF07006B6B334200D1ABE6FEF7A0
:102B200071FFC01B0228F6D9D9E6C046001002404A
:102B3000FFFFFEFFFFFFFBFF007000408813000057
:102B4000FFFFFFEF0C20354A5168150001400829AE
:102B500047D0334A022B32D12B68802613402B609A
:102B6000FEF750FF0700B6042B68334221D10F2235
:102B7000EB6A9343E26A1343EB62616AA36A6A6891
:102B80000B43284980240A4013436B6080232A6842
:102B90005B0413432B60FEF735FF0600A4042B688B
:102BA000234200D06BE6FEF72DFF801B0228F6D9EA
:102BB00095E6FEF727FFC01B0228D5D98FE62B68C4
:102BC000802413402B60FEF71DFF0600A4042B6831
:102BD000234200D153E6FEF715FF801B0228F6D9E9
:102BE0007DE61800012B00D116E6C0215368656A06
:102BF0004902D26A19400120A94200D00CE60F21F7
:102C00000A40E16A8A4200D006E6F02080030340D1
:102C1000A06A1B1A581E8341D8B2FDE5001002407D
:102C2000FFFFFFFEFF7FC2FF30B5124D89B01022BB
:102C30002900684600F0ECF9290004AC103110229C
:102C4000200000F0E5F90C220B494B681A40082AD5
:102C50000DD1CA6A0F2168469B0C0B400A40C55C27
:102C6000A15C0648FDF750FA684309B030BD03483F
:102C7000FBE7C0464C3000080010024000127A000A
:102C8000F7B505000F00002801D10120FEBD01228B
:102C9000374C236813408B421CD329688B0722D4FE
:102CA000CB072FD4012322681A40BA4251D82B688F
:102CB000304C5B0754D4FFF7B7FF63682E4A1B06FE
:102CC0001B0FD35CD8402D4B18600020FEF75AFE36
:102CD0000020DBE7236893430B4323602368134002
:102CE0008B42D2D1D9E7234A4B0704D5E023506861
:102CF000DB0003435360F02053688343A868034319
:102D00005360CDE71B4E6A683368012A19D19B03D3
:102D1000BBD5032173688B4313437360FEF772FEC8
:102D200001900C2372681A406B689B009A42B9D0DC
:102D3000FEF768FE019BC01A114B9842F1D903209F
:102D4000A4E7022A02D19B01E3D49EE79B07E0D4CB
:102D50009BE722689A43226022681A42A7D094E730
:102D60006368084A1340EA6813436360A3E7C046F8
:102D70000020024000100240B83200080400002089
:102D800088130000FFF8FFFFF0B5036885B0050069
:102D9000DB0328D5802200213B4C5205E3690091DA
:102DA000134208D1E3691343E361E36913400393DA
:102DB000039B012300938027344E7F0033683B42FE
:102DC0002FD0C022236A92001340314E3BD1236A98
:102DD0001E406B681E43009B2662012B03D1E369F2
:102DE0002C4A1340E3612A68D30706D503202649FD
:102DF0000B6B8343A86803430B63930606D510202F
:102E000021490B6B8343E86803430B630020930362
:102E100017D580211C4A136B8B4329690B4313631D
:102E20000FE033683B433360FEF7ECFD01903368FD
:102E30003B42C6D1FEF7E6FD019BC01A6428F6D9D5
:102E4000032005B0F0BD69680A409A42BFD08023D4
:102E5000226A206A11005B0203432362236A0E4840
:102E60003140034023622162D307B0D5FEF7CAFD8B
:102E700007000222236A1342A9D1FEF7C3FD074BC4
:102E8000C01B9842F5D9DBE70010024000700040FB
:102E9000FFFCFFFFFFFFFFEFFFFFFEFF88130000B7
:102EA00030B5124B87B00093114B124D0193124B6A
:102EB00069460293114B28000493114B0393114B65
:102EC0000593FEF733FC00280BD10F4B0F4C23600A
:102ED0001B68002B03D028009847002803D000234C
:102EE00023600120404207B030BDC046790300088E
:102EF000390200086000002091020008ED0200087D
:102F0000B1020008051A000808000020880000200F
:102F1000054810B500684469002C02D00348A0475A
:102F200010BD01204042FBE7880000206000002027
:102F3000054810B500688469002C02D00348A047FA
:102F400010BD01204042FBE7880000206000002007
:102F500010B5074C2000FEF70BFC002807D1054BED
:102F600001211B6820009B6898470028F7D110BDFD
:102F7000600000208800002007B50248FEF739FCF9
:102F80000EBDC0466000002010B50248FEF75AFC96
:102F900010BDC0466000002010B50248FEF75CFC82
:102FA00010BDC0466000002010B50248FEF768FC66
:102FB00010BDC0466000002010B50248FEF772FC4C
:102FC00010BDC0466000002070B500260C4D0D4CB1
:102FD000641BA410A64209D1002600F02BF80A4D6C
:102FE0000A4C641BA410A64205D170BDB300EB5877
:102FF00098470136EEE7B300EB5898470136F2E701
:10300000CC320008CC320008CC320008D0320008A4
:10301000002310B59A4200D110BDCC5CC4540133DA
:10302000F8E703001218934200D17047197001337A
:10303000F9E70000F8B5C046F8BC08BC9E467047EA
:0C304000F8B5C046F8BC08BC9E467047BE
:10304C0002030405060708090A0B0C0D0E0F1010DD
:10305C000102030405060708090A0B0C0D0E0F10DC
:10306C0000C1814001C0804101C0804100C181404C
:10307C0001C0804100C1814000C1814001C080413C
:10308C0001C0804100C1814000C1814001C080412C
:10309C0000C1814001C0804101C0804100C181401C
:1030AC0001C0804100C1814000C1814001C080410C
:1030BC0000C1814001C0804101C0804100C18140FC
:1030CC0000C1814001C0804101C0804100C18140EC
:1030DC0001C0804100C1814000C1814001C08041DC
:1030EC0001C0804100C1814000C1814001C08041CC
:1030FC0000C1814001C0804101C0804100C18140BC
:10310C0000C1814001C0804101C0804100C18140AB
:10311C0001C0804100C1814000C1814001C080419B
:10312C0000C1814001C0804101C0804100C181408B
:10313C0001C0804100C1814000C1814001C080417B
:10314C0001C0804100C1814000C1814001C080416B
:10315C0000C1814001C0804101C0804100C181405B
:10316C0000C0C101C30302C2C60607C705C5C4041B
:10317C00CC0C0DCD0FCFCE0E0ACACB0BC90908C88B
:10318C00D81819D91BDBDA1A1EDEDF1FDD1D1CDC7B
:10319C0014D4D515D71716D6D21213D311D1D010EB
:1031AC00F03031F133F3F23236F6F737F53534F4DB
:1031BC003CFCFD3DFF3F3EFEFA3A3BFB39F9F8384B
:1031CC0028E8E929EB2B2AEAEE2E2FEF2DEDEC2C3B
:1031DC00E42425E527E7E62622E2E323E12120E0AB
:1031EC00A06061A163A3A26266A6A767A56564A49B
:1031FC006CACAD6DAF6F6EAEAA6A6BAB69A9A8680B
:10320C0078B8B979BB7B7ABABE7E7FBF7DBDBC7CFA
:10321C00B47475B577B7B67672B2B373B17170B06A
:10322C00509091519353529296565797559594545A
:10323C009C5C5D9D5F9F9E5E5A9A9B5B99595898CA
:10324C00884849894B8B8A4A4E8E8F4F8D4D4C8CBA
:10325C00448485458747468682424383418180402A
:10326C00F0040008CC040008D2040008D8040008BC
:10327C00F0040008F0040008F0040008F004000852
:10328C00F0040008F0040008F0040008F004000842
:10329C00F0040008F0040008F0040008F004000832
:1032AC00DE040008E4040008EA0400080000000042
:1032BC0000000000010203040607080900010000D9
:0432CC00E90000080D
:0432D000C100000831
:1032D400FFFFFFFF00127A00771600086D16000842
:1032E400D3150008A3160008BD160008DD15000854
:1032F400ED150008010000000400000001000006B4
:0433040000000000C5
:040000050800155189
:00000001FF
